:020000040800F2
:1000000000280020DD0100082D0200082D02000854
:100010002D0200082D0200082D020008000000003B
:100020000000000000000000000000002D02000899
:100030002D020008000000002D0200082D0200081B
:100040002D0200082D0200082D0200082D020008D4
:100050002D0200082D0200082D0200082D020008C4
:100060002D0200082D0200082D0200082D020008B4
:100070002D0200082D0200082D0200082D020008A4
:100080002D0200082D0200082D0200082D02000894
:100090002D0200082D0200082D0200082D02000884
:1000A0002D0200082D0200082D0200082D02000874
:1000B0002D0200082D0200082D0200082D02000864
:1000C0002D0200082D0200082D0200082D02000854
:1000D0002D0200082D0200082D0200082D02000844
:1000E0002D0200082D020008000000002D0200086B
:1000F0002D0200082D0200082D0200082D02000824
:100100002D0200082D0200082D0200082D02000813
:100110002D0200082D0200082D0200082D02000803
:100120002D0200082D0200082D0200082D020008F3
:1001300010B5054C237833B9044B13B10448AFF321
:1001400000800123237010BD040000200000000087
:100150007802000808B5034B1BB103490348AFF30D
:10016000008008BD000000000800002078020008A0
:1001700080B483B000AF164B1B68154A43F00403EC
:100180001360144B1B68134A23F470031360114B64
:100190001B68104A43F4001313600F4B1B681B6865
:1001A000C3F34033DBB20C4A126883F00103D9B2C7
:1001B000138861F34D33138000237B6002E07B687A
:1001C00001337B607B6841F287329342F7DDE4E7DD
:1001D0001810024004080140000000200D48854628
:1001E000AFF300800C480D490D4A002302E0D458BB
:1001F000C4500433C4188C42F9D30A4A0A4C002371
:1002000001E013600432A242FBD300F011F8FFF7C3
:10021000AFFFFEE7002800200000002004000020BF
:10022000980200080400002020000020FEE70000E3
:1002300070B500250C4E0D4CA41BA410A54209D18D
:1002400000F01AF800250A4E0A4CA41BA410A5427F
:1002500005D170BD56F8253098470135EEE756F8C0
:10026000253098470135F2E7900200089002000817
:100270009002000894020008F8B500BFF8BC08BC62
:100280009E467047F8B500BFF8BC08BC9E46704754
:04029000550100080C
:04029400310100082C
:040298000C0801400D
:04000005080001DD11
:00000001FF
